{
  "contractName": "CertificateVerification",
  "abi": [
    {
      "anonymous": false,
      "inputs": [
        {
          "indexed": false,
          "internalType": "string",
          "name": "certificateHash",
          "type": "string"
        }
      ],
      "name": "CertificatePublished",
      "type": "event"
    },
    {
      "inputs": [
        {
          "internalType": "uint256",
          "name": "",
          "type": "uint256"
        }
      ],
      "name": "certificateHashes",
      "outputs": [
        {
          "internalType": "string",
          "name": "",
          "type": "string"
        }
      ],
      "stateMutability": "view",
      "type": "function",
      "constant": true
    },
    {
      "inputs": [
        {
          "internalType": "string",
          "name": "",
          "type": "string"
        }
      ],
      "name": "certificates",
      "outputs": [
        {
          "internalType": "string",
          "name": "awardeeName",
          "type": "string"
        },
        {
          "internalType": "string",
          "name": "certificateName",
          "type": "string"
        },
        {
          "internalType": "string",
          "name": "certificateCode",
          "type": "string"
        },
        {
          "internalType": "string",
          "name": "certificateHash",
          "type": "string"
        },
        {
          "internalType": "uint256",
          "name": "timestamp",
          "type": "uint256"
        }
      ],
      "stateMutability": "view",
      "type": "function",
      "constant": true
    },
    {
      "inputs": [
        {
          "internalType": "string",
          "name": "awardeeName",
          "type": "string"
        },
        {
          "internalType": "string",
          "name": "certificateName",
          "type": "string"
        },
        {
          "internalType": "string",
          "name": "certificateCode",
          "type": "string"
        },
        {
          "internalType": "string",
          "name": "certificateHash",
          "type": "string"
        }
      ],
      "name": "publishCertificate",
      "outputs": [],
      "stateMutability": "nonpayable",
      "type": "function"
    },
    {
      "inputs": [
        {
          "internalType": "string",
          "name": "certificateHash",
          "type": "string"
        }
      ],
      "name": "verifyCertificate",
      "outputs": [
        {
          "internalType": "bool",
          "name": "",
          "type": "bool"
        },
        {
          "components": [
            {
              "internalType": "string",
              "name": "awardeeName",
              "type": "string"
            },
            {
              "internalType": "string",
              "name": "certificateName",
              "type": "string"
            },
            {
              "internalType": "string",
              "name": "certificateCode",
              "type": "string"
            },
            {
              "internalType": "string",
              "name": "certificateHash",
              "type": "string"
            },
            {
              "internalType": "uint256",
              "name": "timestamp",
              "type": "uint256"
            }
          ],
          "internalType": "struct CertificateVerification.Certificate",
          "name": "",
          "type": "tuple"
        }
      ],
      "stateMutability": "view",
      "type": "function",
      "constant": true
    }
  ],
  "bytecode": "0x608060405234801561001057600080fd5b5061100b806100206000396000f3fe608060405234801561001057600080fd5b506004361061004c5760003560e01c80635077da2a146100515780638b23d8751461006d5780638f2b91ea1461009e578063a1735e71146100d2575b600080fd5b61006b60048036038101906100669190610a4d565b610102565b005b61008760048036038101906100829190610a0c565b6102f4565b604051610095929190610d2b565b60405180910390f35b6100b860048036038101906100b39190610a0c565b6105a5565b6040516100c9959493929190610d7d565b60405180910390f35b6100ec60048036038101906100e79190610b10565b610811565b6040516100f99190610d5b565b60405180910390f35b6000815111610146576040517f08c379a000000000000000000000000000000000000000000000000000000000815260040161013d90610e0c565b60405180910390fd5b600080826040516101579190610d14565b9081526020016040518091039020600301805461017390610f1d565b9050146101b5576040517f08c379a00000000000000000000000000000000000000000000000000000000081526004016101ac90610dec565b60405180910390fd5b6040518060a00160405280858152602001848152602001838152602001828152602001428152506000826040516101ec9190610d14565b908152602001604051809103902060008201518160000190805190602001906102169291906108bd565b5060208201518160010190805190602001906102339291906108bd565b5060408201518160020190805190602001906102509291906108bd565b50606082015181600301908051906020019061026d9291906108bd565b50608082015181600401559050506001819080600181540180825580915050600190039060005260206000200160009091909190915090805190602001906102b69291906108bd565b507fd16aa734e909037bd7d0bdd1fc36871ac3af8f8dab8df53fef67731f16ed623d816040516102e69190610d5b565b60405180910390a150505050565b60006102fe610943565b6000808460405161030f9190610d14565b90815260200160405180910390206040518060a001604052908160008201805461033890610f1d565b80601f016020809104026020016040519081016040528092919081815260200182805461036490610f1d565b80156103b15780601f10610386576101008083540402835291602001916103b1565b820191906000526020600020905b81548152906001019060200180831161039457829003601f168201915b505050505081526020016001820180546103ca90610f1d565b80601f01602080910402602001604051908101604052809291908181526020018280546103f690610f1d565b80156104435780601f1061041857610100808354040283529160200191610443565b820191906000526020600020905b81548152906001019060200180831161042657829003601f168201915b5050505050815260200160028201805461045c90610f1d565b80601f016020809104026020016040519081016040528092919081815260200182805461048890610f1d565b80156104d55780601f106104aa576101008083540402835291602001916104d5565b820191906000526020600020905b8154815290600101906020018083116104b857829003601f168201915b505050505081526020016003820180546104ee90610f1d565b80601f016020809104026020016040519081016040528092919081815260200182805461051a90610f1d565b80156105675780601f1061053c57610100808354040283529160200191610567565b820191906000526020600020905b81548152906001019060200180831161054a57829003601f168201915b505050505081526020016004820154815250509050600081606001515114156105975760008192509250506105a0565b60018192509250505b915091565b6000818051602081018201805184825260208301602085012081835280955050505050506000915090508060000180546105de90610f1d565b80601f016020809104026020016040519081016040528092919081815260200182805461060a90610f1d565b80156106575780601f1061062c57610100808354040283529160200191610657565b820191906000526020600020905b81548152906001019060200180831161063a57829003601f168201915b50505050509080600101805461066c90610f1d565b80601f016020809104026020016040519081016040528092919081815260200182805461069890610f1d565b80156106e55780601f106106ba576101008083540402835291602001916106e5565b820191906000526020600020905b8154815290600101906020018083116106c857829003601f168201915b5050505050908060020180546106fa90610f1d565b80601f016020809104026020016040519081016040528092919081815260200182805461072690610f1d565b80156107735780601f1061074857610100808354040283529160200191610773565b820191906000526020600020905b81548152906001019060200180831161075657829003601f168201915b50505050509080600301805461078890610f1d565b80601f01602080910402602001604051908101604052809291908181526020018280546107b490610f1d565b80156108015780601f106107d657610100808354040283529160200191610801565b820191906000526020600020905b8154815290600101906020018083116107e457829003601f168201915b5050505050908060040154905085565b6001818154811061082157600080fd5b90600052602060002001600091509050805461083c90610f1d565b80601f016020809104026020016040519081016040528092919081815260200182805461086890610f1d565b80156108b55780601f1061088a576101008083540402835291602001916108b5565b820191906000526020600020905b81548152906001019060200180831161089857829003601f168201915b505050505081565b8280546108c990610f1d565b90600052602060002090601f0160209004810192826108eb5760008555610932565b82601f1061090457805160ff1916838001178555610932565b82800160010185558215610932579182015b82811115610931578251825591602001919060010190610916565b5b50905061093f9190610972565b5090565b6040518060a0016040528060608152602001606081526020016060815260200160608152602001600081525090565b5b8082111561098b576000816000905550600101610973565b5090565b60006109a261099d84610e5d565b610e2c565b9050828152602081018484840111156109ba57600080fd5b6109c5848285610edb565b509392505050565b600082601f8301126109de57600080fd5b81356109ee84826020860161098f565b91505092915050565b600081359050610a0681610fbe565b92915050565b600060208284031215610a1e57600080fd5b600082013567ffffffffffffffff811115610a3857600080fd5b610a44848285016109cd565b91505092915050565b60008060008060808587031215610a6357600080fd5b600085013567ffffffffffffffff811115610a7d57600080fd5b610a89878288016109cd565b945050602085013567ffffffffffffffff811115610aa657600080fd5b610ab2878288016109cd565b935050604085013567ffffffffffffffff811115610acf57600080fd5b610adb878288016109cd565b925050606085013567ffffffffffffffff811115610af857600080fd5b610b04878288016109cd565b91505092959194509250565b600060208284031215610b2257600080fd5b6000610b30848285016109f7565b91505092915050565b610b4281610ec5565b82525050565b6000610b5382610e8d565b610b5d8185610e98565b9350610b6d818560208601610eea565b610b7681610fad565b840191505092915050565b6000610b8c82610e8d565b610b968185610ea9565b9350610ba6818560208601610eea565b610baf81610fad565b840191505092915050565b6000610bc582610e8d565b610bcf8185610eba565b9350610bdf818560208601610eea565b80840191505092915050565b6000610bf8601a83610ea9565b91507f436572746966696361746520616c7265616479206578697374730000000000006000830152602082019050919050565b6000610c38602083610ea9565b91507f436572746966696361746520686173682063616e6e6f7420626520656d7074796000830152602082019050919050565b600060a0830160008301518482036000860152610c888282610b48565b91505060208301518482036020860152610ca28282610b48565b91505060408301518482036040860152610cbc8282610b48565b91505060608301518482036060860152610cd68282610b48565b9150506080830151610ceb6080860182610cf6565b508091505092915050565b610cff81610ed1565b82525050565b610d0e81610ed1565b82525050565b6000610d208284610bba565b915081905092915050565b6000604082019050610d406000830185610b39565b8181036020830152610d528184610c6b565b90509392505050565b60006020820190508181036000830152610d758184610b81565b905092915050565b600060a0820190508181036000830152610d978188610b81565b90508181036020830152610dab8187610b81565b90508181036040830152610dbf8186610b81565b90508181036060830152610dd38185610b81565b9050610de26080830184610d05565b9695505050505050565b60006020820190508181036000830152610e0581610beb565b9050919050565b60006020820190508181036000830152610e2581610c2b565b9050919050565b6000604051905081810181811067ffffffffffffffff82111715610e5357610e52610f7e565b5b8060405250919050565b600067ffffffffffffffff821115610e7857610e77610f7e565b5b601f19601f8301169050602081019050919050565b600081519050919050565b600082825260208201905092915050565b600082825260208201905092915050565b600081905092915050565b60008115159050919050565b6000819050919050565b82818337600083830152505050565b60005b83811015610f08578082015181840152602081019050610eed565b83811115610f17576000848401525b50505050565b60006002820490506001821680610f3557607f821691505b60208210811415610f4957610f48610f4f565b5b50919050565b7f4e487b7100000000000000000000000000000000000000000000000000000000600052602260045260246000fd5b7f4e487b7100000000000000000000000000000000000000000000000000000000600052604160045260246000fd5b6000601f19601f8301169050919050565b610fc781610ed1565b8114610fd257600080fd5b5056fea26469706673582212200a41b39fe453a9342f8d1629f8d774f3a6e6b9dfa256d625fc524ce8556bac4464736f6c63430008000033",
  "immutableReferences": {},
  "source": "// SPDX-License-Identifier: MIT\r\npragma solidity ^0.8.0;\r\n\r\ncontract CertificateVerification {\r\n    struct Certificate {\r\n        string awardeeName;\r\n        string certificateName;\r\n        string certificateCode;\r\n        string certificateHash;\r\n        uint256 timestamp;\r\n    }\r\n\r\n    mapping(string => Certificate) public certificates;\r\n    string[] public certificateHashes;\r\n\r\n    event CertificatePublished(string certificateHash);\r\n\r\n    function publishCertificate(\r\n        string memory awardeeName,\r\n        string memory certificateName,\r\n        string memory certificateCode,\r\n        string memory certificateHash\r\n    ) public {\r\n        require(bytes(certificateHash).length > 0, \"Certificate hash cannot be empty\");\r\n        require(bytes(certificates[certificateHash].certificateHash).length == 0, \"Certificate already exists\");\r\n\r\n        certificates[certificateHash] = Certificate({\r\n            awardeeName: awardeeName,\r\n            certificateName: certificateName,\r\n            certificateCode: certificateCode,\r\n            certificateHash: certificateHash,\r\n            timestamp: block.timestamp\r\n        });\r\n\r\n        certificateHashes.push(certificateHash);\r\n        emit CertificatePublished(certificateHash);\r\n    }\r\n\r\n    function verifyCertificate(string memory certificateHash) public view returns (bool, Certificate memory) {\r\n        Certificate memory cert = certificates[certificateHash];\r\n        if (bytes(cert.certificateHash).length == 0) {\r\n            return (false, cert);\r\n        }\r\n        return (true, cert);\r\n    }\r\n}",
  "sourcePath": "C:\\Users\\abdul\\OneDrive\\Desktop\\EXTRA\\blockchain-certification\\contracts\\CertificateVerification.sol",
  "compiler": {
    "name": "solc",
    "version": "0.8.0+commit.c7dfd78e.Emscripten.clang"
  },
  "schemaVersion": "3.4.16",
  "updatedAt": "2025-02-19T12:50:42.189Z",
  "networkType": "ethereum",
  "devdoc": {
    "kind": "dev",
    "methods": {},
    "version": 1
  },
  "userdoc": {
    "kind": "user",
    "methods": {},
    "version": 1
  }
}